:100000000C942A000C9447000C9447000C94470071
:100010000C9447000C9447000C9447000C94470044
:100020000C9447000C9447000C9447000C94470034
:100030000C9447000C9447000C9447000C94470024
:100040000C9447000C9447000C9447000C94470014
:100050000C94470011241FBECFE5D8E0DEBFCDBF12
:1000600011E0A0E6B0E0E6E5F6E502C005900D92ED
:10007000A630B107D9F713E0A6E0B1E001C01D92A8
:10008000AB33B107E1F70E944E210C94292B0C945D
:100090000000EF92FF920F931F937B018C0120E0F1
:1000A00030E040E05FE40E94490388238CF0C801FF
:1000B000B70120E030E040E05FE40E94C1010E940F
:1000C000A9039B01AC01205030404040504806C07D
:1000D000C801B7010E94A9039B01AC01B901CA0183
:1000E0001F910F91FF90EF900895A0E0B0E0EBE733
:1000F000F0E00C94722ADC012B01FA019C91923001
:1001000008F439C1EB018881823008F433C194309E
:1001100069F4843009F02FC111969C91119789815F
:10012000981709F428C1ABE6B0E025C1843009F482
:1001300021C18230A9F4923009F01DC19A01AD01AC
:1001400088E0EA010990AE01E90109929E0181501F
:10015000C1F7E201898111969C918923818308C1AD
:10016000923009F407C112962D903C901397EB0141
:100170008A819B811496AD90BD90CD90DC901797AD
:10018000EC80FD800E811F819101281B390BB90184
:1001900037FF04C066277727621B730B6032710537
:1001A0000CF061C0121613066CF537014801062EDB
:1001B00004C096948794779467940A94D2F721E0C8
:1001C00030E040E050E004C0220F331F441F551FB1
:1001D0006A95D2F721503040404050402E213F21B7
:1001E00040235123211531054105510521F021E01E
:1001F00030E040E050E079018A01E628F72808293C
:1002000019293CC0232BD1F1260E371E350146019A
:10021000062E04C096948794779467940A94D2F734
:1002200021E030E040E050E004C0220F331F441FC3
:10023000551F6A95D2F721503040404050402A2146
:100240003B214C215D21211531054105510521F04E
:1002500021E030E040E050E059016A01A628B728CB
:10026000C828D9280BC0821593052CF01C01AA249C
:10027000BB24650103C0EE24FF24870111969C91E5
:10028000D20111968C91981709F445C0992339F041
:10029000A80197012A193B094C095D0906C0A6016E
:1002A00095012E193F09400B510B57FD08C01182D3
:1002B0003382228224833583468357831DC081E0A5
:1002C00081833382228288279927DC01821B930B4A
:1002D000A40BB50B84839583A683B7830DC0220F2F
:1002E000331F441F551F24833583468357838281E0
:1002F000938101979383828324813581468157813D
:10030000DA01C9010197A109B1098F5F9F4FAF4F72
:10031000BF4328F30BC0918333822282EA0CFB1C7B
:100320000C1D1D1DE482F5820683178383E0808304
:10033000248135814681578157FF1AC0C901AA27F8
:1003400097FDA095BA2F81709070A070B0705695EF
:10035000479537952795822B932BA42BB52B848318
:100360009583A683B7838281938101969383828349
:10037000DF0101C0D201CD01CDB7DEB7E2E10C94BF
:100380008E2AA0E2B0E0E7ECF1E00C947E2A6983CB
:100390007A838B839C832D833E834F835887E9E048
:1003A000EE2EF12CEC0EFD1ECE010196B7010E943F
:1003B000D2048E010F5E1F4FCE010596B8010E9438
:1003C000D2048A8991E089278A8BC701B801AE01DE
:1003D000475E5F4F0E9475000E94FD03A096E6E015
:1003E0000C949A2AA0E2B0E0E8EFF1E00C947E2AA7
:1003F00069837A838B839C832D833E834F835887C5
:10040000F9E0EF2EF12CEC0EFD1ECE010196B701A6
:100410000E94D2048E010F5E1F4FCE010596B801D7
:100420000E94D204C701B801AE01475E5F4F0E942F
:1004300075000E94FD03A096E6E00C949A2AA0E2C3
:10044000B0E0E5E2F2E00C94722A69837A838B8350
:100450009C832D833E834F835887CE010196BE0136
:10046000675F7F4F0E94D204CE010596BE016F5E8A
:100470007F4F0E94D2049985923088F0898982301A
:10048000C8F0943019F4823051F404C0843029F457
:10049000923081F48BE690E0C6C0923049F420E0BF
:1004A0009A858A89981321E02A87CE010996BBC0D4
:1004B000823049F420E09A858A89981321E02A8BBA
:1004C000CE014196B0C02D843E844F8458886D88FB
:1004D0007E888F88988CEE24FF248701AA24BB2471
:1004E000650140E050E060E070E0E0E0F0E0C10174
:1004F00081709070892BE9F0E60CF71C081D191D1E
:100500009A01AB012A0D3B1D4C1D5D1D80E090E062
:10051000A0E0B0E0E614F7040805190520F481E036
:1005200090E0A0E0B0E0BA01A901480F591F6A1F8E
:100530007B1FAA0CBB1CCC1CDD1C97FE08C081E0F5
:1005400090E0A0E0B0E0A82AB92ACA2ADB2A3196B6
:10055000E032F10549F0660C771C881C991C569412
:10056000479437942794C3CFFA85EA892B893C892D
:100570008B859C85280F391F2E5F3F4F17C0CA01FE
:1005800081709070892B61F016950795F794E79428
:1005900080E090E0A0E0B0E8E82AF92A0A2B1B2BC3
:1005A00076956795579547952F5F3F4F77FDE7CF36
:1005B0000CC0440F551F661F771F17FD4160EE0CDE
:1005C000FF1C001F111F21503040403090E05907A0
:1005D00090E0690790E4790760F32B8F3C8FDB0193
:1005E000CA018F779070A070B07080349105A1051A
:1005F000B10561F447FD0AC0E114F10401051105DC
:1006000029F0405C5F4F6F4F7F4F40781A8EFE1786
:1006100011F081E08A8F4D8F5E8F6F8F78A383E01A
:10062000898FCE0149960E94FD03A096E2E10C94C9
:100630008E2AA8E1B0E0EFE1F3E00C947E2A698312
:100640007A838B839C832D833E834F83588789E0F5
:10065000E82EF12CEC0EFD1ECE010196B7010E9492
:10066000D2048E010F5E1F4FCE010596B8010E9485
:10067000D2048985823040F08989823028F0C70110
:10068000B8010E944A0501C08FEF6896E6E00C941D
:100690009A2AA8E1B0E0EFE4F3E00C947E2A6983A3
:1006A0007A838B839C832D833E834F83588789E095
:1006B000E82EF12CEC0EFD1ECE010196B7010E9432
:1006C000D2048E010F5E1F4FCE010596B8010E9425
:1006D000D2048985823040F08989823028F0C701B0
:1006E000B8010E944A0501C08FEF6896E6E00C94BD
:1006F0009A2AA8E1B0E0EFE7F3E00C947E2A698340
:100700007A838B839C832D833E834F83588789E034
:10071000E82EF12CEC0EFD1ECE010196B7010E94D1
:10072000D2048E010F5E1F4FCE010596B8010E94C4
:10073000D2048985823040F08989823028F0C7014F
:10074000B8010E944A0501C081E06896E6E00C9479
:100750009A2AACE0B0E0EFEAF3E00C94822A6983D5
:100760007A838B839C83CE010196BE016B5F7F4FA2
:100770000E94D2048D81823061F1823050F1843048
:1007800021F48E81882351F12EC02F81388537FDC9
:1007900020C06E812F3131051CF06623F9F023C093
:1007A0008EE190E0821B930B29853A854B855C8511
:1007B00004C056954795379527958A95D2F76623B5
:1007C000B1F050954095309521953F4F4F4F5F4F79
:1007D0000EC020E030E040E050E009C02FEF3FEFD6
:1007E0004FEF5FE704C020E030E040E050E8B9019F
:1007F000CA012C96E2E00C949E2ADF92EF92FF92BF
:100800000F931F93FC01E480F58006811781D1804E
:100810008081823048F480E090E0A0E1B0E0E82AF6
:10082000F92A0A2B1B2BA5C0843009F49FC0823003
:1008300021F4EE24FF24870105C0E114F104010531
:10084000110519F4E0E0F0E096C0628173819FEF3A
:10085000623879070CF05BC022E83FEF261B370BAC
:100860002A3131052CF020E030E040E050E02AC091
:10087000B801A701022E04C0769567955795479554
:100880000A94D2F781E090E0A0E0B0E004C0880FC5
:10089000991FAA1FBB1F2A95D2F70197A109B10979
:1008A0008E219F21A023B1230097A105B10521F03E
:1008B00081E090E0A0E0B0E09A01AB01282B392B59
:1008C0004A2B5B2BDA01C9018F779070A070B07052
:1008D00080349105A105B10539F427FF09C0205CDA
:1008E0003F4F4F4F5F4F04C0215C3F4F4F4F5F4F13
:1008F000E0E0F0E02030A0E03A07A0E04A07A0E402
:100900005A0710F0E1E0F0E079018A0127C0603871
:10091000710564F5FB01E158FF4FD801C7018F77DE
:100920009070A070B07080349105A105B10539F4C4
:10093000E7FE0DC080E490E0A0E0B0E004C08FE3EB
:1009400090E0A0E0B0E0E80EF91E0A1F1B1F17FFA1
:1009500005C016950795F794E794319687E01695AC
:100960000795F794E7948A95D1F705C0EE24FF2404
:100970008701EFEFF0E06E2F679566276795902F60
:100980009F77D794DD24D7948E2F8695492F462BB9
:10099000582F5D29B701CA011F910F91FF90EF9069
:1009A000DF900895FC01DB01408151812281622F9B
:1009B0006F7770E0221F2227221F9381892F880FD3
:1009C000822B282F30E0991F9927991F11969C930D
:1009D000119721153105A9F54115510561057105DD
:1009E00011F482E037C082E89FEF13969C938E93B8
:1009F00012979A01AB0167E0220F331F441F551F66
:100A00006A95D1F783E08C930DC0220F331F441FEA
:100A1000551F12968D919C911397019713969C9355
:100A20008E931297203080E0380780E0480780E4FA
:100A3000580758F314962D933D934D935C93179755
:100A400008952F3F310579F4411551056105710570
:100A500019F484E08C93089564FF03C081E08C93C3
:100A600012C01C9210C02F57304013963C932E9307
:100A7000129783E08C9387E0440F551F661F771F02
:100A80008A95D1F7706414964D935D936D937C9322
:100A9000179708951F93DC01FB019C91923008F495
:100AA00047C08081823008F443C0943051F41196DD
:100AB0001C91843099F58181682F70E0611B710968
:100AC0003FC0843021F0923031F48230B9F181811D
:100AD000882389F12DC011961C9111978230F1F075
:100AE00081811817D9F412962D913C911397828128
:100AF00093818217930794F028173907BCF0149656
:100B00008D919D910D90BC91A02D248135814681C0
:100B10005781281739074A075B0718F4112341F05A
:100B20000AC082179307A407B50740F4112319F0F0
:100B300061E070E005C06FEF7FEF02C060E070E041
:100B4000CB011F910895DF93CF93CDB7DEB781E03E
:100B50006FEF0E94EC0882E06FEF0E94EC0883E0E8
:100B600060E00E94EC0884E06FEF0E94EC08CF91F7
:100B7000DF910895DF93CF93CDB7DEB727970FB6F8
:100B8000F894DEBF0FBECDBF89836A834B83898112
:100B9000853008F0F4C08981882309F4F0C08A8187
:100BA000883008F0ECC08B81813009F070C08981F9
:100BB000282F30E03F832E838E819F8182309105E4
:100BC00051F12E813F812330310534F48E819F8194
:100BD0008130910561F0D3C02E813F8123303105F2
:100BE00071F18E819F8184309105E9F1C8C0AAE33B
:100BF000B0E0EAE3F0E08081482F8A81282F30E0DE
:100C000081E090E0022E02C0880F991F0A94E2F75B
:100C1000842B8C93B4C0A7E3B0E0E7E3F0E08081DD
:100C2000482F8A81282F30E081E090E0022E02C018
:100C3000880F991F0A94E2F7842B8C93A0C0A4E339
:100C4000B0E0E4E3F0E08081482F8A81282F30E093
:100C500081E090E0022E02C0880F991F0A94E2F70B
:100C6000842B8C938CC0A1E3B0E0E1E3F0E08081C1
:100C7000482F8A81282F30E081E090E0022E02C0C8
:100C8000880F991F0A94E2F7842B8C9378C08B818C
:100C9000882309F074C08981282F30E03D832C839C
:100CA0008C819D818230910561F12C813D812330C1
:100CB000310534F48C819D818130910569F05FC0EC
:100CC0002C813D812330310589F18C819D818430D7
:100CD000910509F440C053C0AAE3B0E0EAE3F0E0B4
:100CE0008081482F8A81282F30E081E090E0022E19
:100CF00002C0880F991F0A94E2F7809584238C9391
:100D00003EC0A7E3B0E0E7E3F0E08081482F8A81AE
:100D1000282F30E081E090E0022E02C0880F991F5A
:100D20000A94E2F7809584238C9329C0A4E3B0E071
:100D3000E4E3F0E08081482F8A81282F30E081E0D1
:100D400090E0022E02C0880F991F0A94E2F7809566
:100D500084238C9314C0A1E3B0E0E1E3F0E0808150
:100D6000482F8A81282F30E081E090E0022E02C0D7
:100D7000880F991F0A94E2F7809584238C93279615
:100D80000FB6F894DEBF0FBECDBFCF91DF910895AF
:100D9000DF93CF93CDB7DEB727970FB6F894DEBFBA
:100DA0000FBECDBF89836A834B838981853008F06C
:100DB000F4C08981882309F4F0C08A81883008F062
:100DC000ECC08B81813009F070C08981282F30E020
:100DD0003F832E838E819F818230910551F12E8138
:100DE0003F812330310534F48E819F81813091051C
:100DF00061F0D3C02E813F812330310571F18E81A6
:100E00009F8184309105E9F1C8C0ABE3B0E0EBE32A
:100E1000F0E08081482F8A81282F30E081E090E047
:100E2000022E02C0880F991F0A94E2F7842B8C933C
:100E3000B4C0A8E3B0E0E8E3F0E08081482F8A8105
:100E4000282F30E081E090E0022E02C0880F991F29
:100E50000A94E2F7842B8C93A0C0A5E3B0E0E5E30D
:100E6000F0E08081482F8A81282F30E081E090E0F7
:100E7000022E02C0880F991F0A94E2F7842B8C93EC
:100E80008CC0A2E3B0E0E2E3F0E08081482F8A81E9
:100E9000282F30E081E090E0022E02C0880F991FD9
:100EA0000A94E2F7842B8C9378C08B81882309F015
:100EB00074C08981282F30E03D832C838C819D81F3
:100EC0008230910561F12C813D812330310534F46C
:100ED0008C819D818130910569F05FC02C813D81BD
:100EE0002330310589F18C819D818430910509F48D
:100EF00040C053C0ABE3B0E0EBE3F0E08081482FAB
:100F00008A81282F30E081E090E0022E02C0880F15
:100F1000991F0A94E2F7809584238C933EC0A8E33E
:100F2000B0E0E8E3F0E08081482F8A81282F30E0AC
:100F300081E090E0022E02C0880F991F0A94E2F728
:100F4000809584238C9329C0A5E3B0E0E5E3F0E02D
:100F50008081482F8A81282F30E081E090E0022EA6
:100F600002C0880F991F0A94E2F7809584238C931E
:100F700014C0A2E3B0E0E2E3F0E08081482F8A8170
:100F8000282F30E081E090E0022E02C0880F991FE8
:100F90000A94E2F7809584238C9327960FB6F894F1
:100FA000DEBF0FBECDBFCF91DF910895DF93CF930A
:100FB00000D000D00F92CDB7DEB789836A838981D4
:100FC000853008F074C08981882309F470C08A8153
:100FD000883008F06CC08981282F30E03D832C8355
:100FE0004C815D814230510549F18C819D81833076
:100FF000910534F42C813D812130310561F057C0D9
:101000004C815D814330510561F18C819D8184303B
:101010009105D1F14CC0E9E3F0E08081282F30E068
:101020008A81882F90E0A90102C0559547958A953D
:10103000E2F7CA01582F51705B833BC0E6E3F0E052
:101040008081282F30E08A81882F90E0A90102C09A
:10105000559547958A95E2F7CA01582F51705B83E1
:1010600028C0E3E3F0E08081282F30E08A81882FD8
:1010700090E0A90102C0559547958A95E2F7CA010B
:10108000582F51705B8315C0E0E3F0E08081282F7A
:1010900030E08A81882F90E0A90102C055954795DC
:1010A0008A95E2F7CA01582F51705B8302C08FEF17
:1010B0008B838B810F900F900F900F900F90CF919B
:1010C000DF910895DF93CF9300D000D0CDB7DEB786
:1010D00089836A838981853008F077C08981882374
:1010E00009F473C08A81883008F06FC08981282F85
:1010F00030E03C832B838B819C818230910551F1C0
:101100002B813C812330310534F48B819C818130EB
:10111000910561F05AC02B813C812330310571F17A
:101120008B819C8184309105E9F14FC0ABE3B0E045
:10113000EBE3F0E08081482F8A81282F30E081E0C6
:1011400090E0022E02C0880F991F0A94E2F78427CC
:101150008C933BC0A8E3B0E0E8E3F0E08081482F47
:101160008A81282F30E081E090E0022E02C0880FB3
:10117000991F0A94E2F784278C9327C0A5E3B0E077
:10118000E5E3F0E08081482F8A81282F30E081E07C
:1011900090E0022E02C0880F991F0A94E2F784277C
:1011A0008C9313C0A2E3B0E0E2E3F0E08081482F2B
:1011B0008A81282F30E081E090E0022E02C0880F63
:1011C000991F0A94E2F784278C930F900F900F9049
:1011D0000F90CF91DF910895DF93CF9300D000D08F
:1011E000CDB7DEB789836A8389818530B0F589817F
:1011F000882399F18981282F30E03C832B838B81D0
:101200009C8182309105D9F02B813C8123303105BE
:1012100034F48B819C818130910561F01EC02B815B
:101220003C812330310581F08B819C818430910594
:1012300081F013C0EAE3F0E08A8180830EC0E7E327
:10124000F0E08A81808309C0E4E3F0E08A81808352
:1012500004C0E1E3F0E08A8180830F900F900F904B
:101260000F90CF91DF910895DF93CF9300D000D0FE
:10127000CDB7DEB789836A8389818530B0F58981EE
:10128000882399F18981282F30E03C832B838B813F
:101290009C8182309105D9F02B813C81233031052E
:1012A00034F48B819C818130910561F01EC02B81CB
:1012B0003C812330310581F08B819C818430910504
:1012C00081F013C0EBE3F0E08A8180830EC0E8E395
:1012D000F0E08A81808309C0E5E3F0E08A818083C1
:1012E00004C0E2E3F0E08A8180830F900F900F90BA
:1012F0000F90CF91DF910895DF93CF9300D000D06E
:10130000CDB7DEB7898389818530B8F58981882397
:10131000A1F18981282F30E03C832B838B819C8134
:1013200082309105D9F02B813C812330310534F492
:101330008B819C818130910561F01FC02B813C81A4
:101340002330310581F08B819C818430910581F0BF
:1013500014C0EBE3F0E090819A8311C0E8E3F0E081
:1013600020812A830CC0E5E3F0E030813A8307C096
:10137000E2E3F0E080818A8302C09FEF9A838A8152
:101380000F900F900F900F90CF91DF910895DF9302
:10139000CF9300D00F92CDB7DEB789838981853096
:1013A00008F043C08981882309F43FC08981282F30
:1013B00030E03B832A838A819B8182309105F1F062
:1013C0002A813B812330310534F48A819B8181302D
:1013D000910561F02AC02A813B8123303105B1F0AB
:1013E0008A819B8184309105C9F01FC0ABE3B0E0D6
:1013F000EBE3F0E0808180958C9317C0A8E3B0E028
:10140000E8E3F0E0808180958C930FC0A5E3B0E025
:10141000E5E3F0E0808180958C9307C0A2E3B0E023
:10142000E2E3F0E0808180958C930F900F900F9015
:10143000CF91DF910895DF93CF93CDB7DEB782E0F0
:101440006FE70E94EC08CF91DF910895DF93CF936F
:10145000CDB7DEB782E06FE70E94EC0884E06FE76B
:101460000E94EC08CF91DF910895DF93CF93CDB721
:10147000DEB760970FB6F894DEBF0FBECDBF8B8787
:10148000CE0101969D878C87E3ECF0E0FF87EE8725
:10149000FAE0F88BEE85FF8500808E859F850196AA
:1014A0009F878E87EC85FD8500828C859D850196C2
:1014B0009D878C8798899150988BE889EE2351F706
:1014C0008B858A3070F48B85282F30E0CE01019611
:1014D000FC01E20FF31F8081982F82E0692F0E94A8
:1014E000340960960FB6F894DEBF0FBECDBFCF9122
:1014F000DF910895DF93CF93CDB7DEB7A1970FB6F5
:10150000F894DEBF0FBECDBFCE0143969E8F8D8F68
:10151000EDECF0E0F8A3EF8FFAE0F9A3EF8DF8A17E
:1015200000808F8D98A1019698A38F8FED8DFE8DF1
:1015300000828D8D9E8D01969E8F8D8F99A19150E9
:1015400099A3E9A1EE2351F71F86188A198A1A8AEE
:101550001F86188A198A1A8A8DC08F859889A98949
:10156000BA899E012D5E3F4FF901E80FF91F808176
:10157000982F82E0692F0E94340980E090E0A0E279
:10158000B1E48B879C87AD87BE876B857C858D8515
:101590009E8520E030E04AE755E40E941F02DC010E
:1015A000CB018F839887A987BA876F8178858985D2
:1015B0009A8520E030E040E85FE30E9479038823C9
:1015C0002CF481E090E09E838D833FC06F8178850D
:1015D00089859A8520E03FEF4FE757E40E94190381
:1015E00018164CF56B857C858D859E8520E030E056
:1015F00040E251E40E941F02DC01CB01BC01CD019D
:101600000E944900DC01CB019E838D830FC080E9DD
:1016100091E09C838B838B819C810197F1F79C8364
:101620008B838D819E8101979E838D838D819E8189
:10163000009769F714C06F81788589859A850E9423
:101640004900DC01CB019E838D838D819E819A832D
:10165000898389819A810197F1F79A8389838F859C
:101660009889A989BA890196A11DB11D8F87988B88
:10167000A98BBA8B8F859889A989BA898A309105F7
:10168000A105B1050CF469CFA1960FB6F894DEBFA1
:101690000FBECDBFCF91DF910895DF93CF93CDB72C
:1016A000DEB7A5970FB6F894DEBF0FBECDBFCE0153
:1016B00047969AA389A3E7EDF0E0FCA3EBA3FAE039
:1016C000FDA3EBA1FCA100808BA19CA101969CA392
:1016D0008BA3E9A1FAA1008289A19AA101969AA3FC
:1016E00089A39DA191509DA3EDA1EE2351F71B8AE3
:1016F0001C8A1D8A1E8A1F86188A198A1A8A1B8AC2
:101700001C8A1D8A1E8AB7C08B899C89AD89BE89B7
:101710009E01295E3F4FF901E80FF91F8081982F44
:1017200084E0692F0E9434091F86188A198A1A8A50
:101730008DC08F859889A989BA899E01295E3F4FFE
:10174000F901E80FF91F8081982F82E0692F0E942C
:10175000340980E090E0A0E2B1E48B879C87AD87FC
:10176000BE876B857C858D859E8520E030E04AE7CD
:1017700055E40E941F02DC01CB018F839887A98763
:10178000BA876F81788589859A8520E030E040E8C6
:101790005FE30E94790388232CF481E090E09E832C
:1017A0008D833FC06F81788589859A8520E03FEFE2
:1017B0004FE757E40E94190318164CF56B857C859A
:1017C0008D859E8520E030E040E251E40E941F02BA
:1017D000DC01CB01BC01CD010E944900DC01CB0141
:1017E0009E838D830FC080E991E09C838B838B81E6
:1017F0009C810197F1F79C838B838D819E8101975A
:101800009E838D838D819E81009769F714C06F81BF
:10181000788589859A850E944900DC01CB019E83E9
:101820008D838D819E819A83898389819A81019795
:10183000F1F79A8389838F859889A989BA89019656
:10184000A11DB11D8F87988BA98BBA8B8F85988925
:10185000A989BA898A309105A105B1050CF469CF2F
:101860008B899C89AD89BE890196A11DB11D8B8B89
:101870009C8BAD8BBE8B8B899C89AD89BE898A3050
:101880009105A105B1050CF43FCFA5960FB6F894CC
:10189000DEBF0FBECDBFCF91DF910895DF93CF9311
:1018A000CDB7DEB7E1970FB6F894DEBF0FBECDBF60
:1018B0008BA76CA7CE0181969EA78DA7E1EEF0E0E5
:1018C000F8ABEFA7FAE0F9ABEFA5F8A900808FA578
:1018D00098A9019698AB8FA7EDA5FEA500828DA5CE
:1018E0009EA501969EA78DA799A9915099ABE9A9AC
:1018F000EE2351F71D8E1E8E1F8E18A28BA58823F6
:101900000CF464C18BA58A300CF060C18CA58A30C0
:101910000CF05CC18CA588230CF458C19BA58CA548
:1019200098170CF0AAC08BA5992787FD9095A92F31
:10193000B92F8D8F9E8FAF8FB8A38DC08D8D9E8D4B
:10194000AF8DB8A19E012F5D3F4FF901E80FF91F40
:101950008081982F82E0692F0E94340980E090E016
:10196000A0E2B1E4898F9A8FAB8FBC8F698D7A8D9D
:101970008B8D9C8D20E030E04AE755E40E941F02E9
:10198000DC01CB018D8B9E8BAF8BB88F6D897E89EF
:101990008F89988D20E030E040E85FE30E94790372
:1019A00088232CF481E090E09C8B8B8B3FC06D8969
:1019B0007E898F89988D20E03FEF4FE757E40E94A2
:1019C000190318164CF5698D7A8D8B8D9C8D20E04E
:1019D00030E040E251E40E941F02DC01CB01BC0177
:1019E000CD010E944900DC01CB019C8B8B8B0FC089
:1019F00080E991E09A8B898B89899A890197F1F71F
:101A00009A8B898B8B899C8901979C8B8B8B8B897B
:101A10009C89009769F714C06D897E898F89988D9C
:101A20000E944900DC01CB019C8B8B8B8B899C89AC
:101A3000988B8F878F8598890197F1F7988B8F877F
:101A40008D8D9E8DAF8DB8A10196A11DB11D8D8F7D
:101A50009E8FAF8FB8A38CA5282F332727FD3095F5
:101A6000432F532F8D8D9E8DAF8DB8A18217930775
:101A7000A407B5070CF462CFA9C08BA5992787FDF1
:101A80009095A92FB92F8D8F9E8FAF8FB8A38DC042
:101A90008D8D9E8DAF8DB8A19E012F5D3F4FF901B9
:101AA000E80FF91F8081982F82E0692F0E94340986
:101AB00080E090E0A0E2B1E48B879C87AD87BE8791
:101AC0006B857C858D859E8520E030E04AE755E476
:101AD0000E941F02DC01CB018F839887A987BA87F8
:101AE0006F81788589859A8520E030E040E85FE362
:101AF0000E94790388232CF481E090E09E838D83FB
:101B00003FC06F81788589859A8520E03FEF4FE758
:101B100057E40E94190318164CF56B857C858D855A
:101B20009E8520E030E040E251E40E941F02DC018B
:101B3000CB01BC01CD010E944900DC01CB019E8399
:101B40008D830FC080E991E09C838B838B819C8186
:101B50000197F1F79C838B838D819E8101979E83F2
:101B60008D838D819E81009769F714C06F81788580
:101B700089859A850E944900DC01CB019E838D8373
:101B80008D819E819A83898389819A810197F1F75A
:101B90009A8389838D8D9E8DAF8DB8A10197A10900
:101BA000B1098D8F9E8FAF8FB8A38CA5282F3327B7
:101BB00027FD3095432F532F8D8D9E8DAF8DB8A16E
:101BC00082179307A407B5070CF062CFE1960FB612
:101BD000F894DEBF0FBECDBFCF91DF910895DF93A4
:101BE000CF93CDB7DEB7E9970FB6F894DEBF0FBE3F
:101BF000CDBF8BAB6CABCE0189969EAB8DABEBEEC4
:101C0000F0E0F8AFEFABFAE0F9AFEFA9F8AD008084
:101C10008FA998AD019698AF8FABEDA9FEA9008270
:101C20008DA99EA901969EAB8DAB99AD915099AFB0
:101C3000E9ADEE2351F78BA99AE0692F0E94F529AF
:101C400088A78BA99AE0692F0E94F529892F8FA375
:101C50008CA99AE0692F0E94F5298EA38CA99AE09D
:101C6000692F0E94F529892F8DA319A21AA21BA200
:101C70001CA21D8E1E8E1F8E18A288A588230CF410
:101C800005C288A58A300CF001C28EA18A300CF002
:101C9000FDC18EA188230CF4F9C19BA98CA99817CA
:101CA0000CF0FCC088A5992787FD9095A92FB92F26
:101CB00089A39AA3ABA3BCA3DFC089A19AA1ABA1BE
:101CC000BCA19E01275D3F4FF901E80FF91F8081FC
:101CD000982F84E0692F0E9434098FA1992787FDEE
:101CE0009095A92FB92F8D8F9E8FAF8FB8A3AEC0BF
:101CF0008D8D9E8DAF8DB8A19E01275D3F4FF9015F
:101D0000E80FF91F8081982F82E0692F0E94340923
:101D100080E090E0A0E2B1E4898F9A8FAB8FBC8F16
:101D2000698D7A8D8B8D9C8D20E030E04AE755E4FB
:101D30000E941F02DC01CB018D8B9E8BAF8BB88F75
:101D40006D897E898F89988D20E030E040E85FE3DF
:101D50000E94790388232CF481E090E09C8B8B8B8C
:101D60003FC06D897E898F89988D20E03FEF4FE7D6
:101D700057E40E94190318164CF5698D7A8D8B8DE6
:101D80009C8D20E030E040E251E40E941F02DC0123
:101D9000CB01BC01CD010E944900DC01CB019C8B31
:101DA0008B8B0FC080E991E09A8B898B89899A8906
:101DB0000197F1F79A8B898B8B899C8901979C8B72
:101DC0008B8B8B899C89009769F714C06D897E89FC
:101DD0008F89988D0E944900DC01CB019C8B8B8BF5
:101DE0008B899C89988B8F878F8598890197F1F7CC
:101DF000988B8F878DA1282F332727FD3095432F70
:101E0000532F8D8D9E8DAF8DB8A1281739074A07A6
:101E10005B0789F48EA1282F332727FD3095432FA8
:101E2000532F89A19AA1ABA1BCA1281739074A0752
:101E30005B0709F42BC18D8D9E8DAF8DB8A10196E6
:101E4000A11DB11D8D8F9E8FAF8FB8A38D8D9E8DDF
:101E5000AF8DB8A18A309105A105B1050CF448CF2A
:101E60001FA289A19AA1ABA1BCA10196A11DB11D80
:101E700089A39AA3ABA3BCA38EA1282F332727FD48
:101E80003095432F532F89A19AA1ABA1BCA128174C
:101E900039074A075B070CF010CFF8C088A59927CF
:101EA00087FD9095A92FB92F89A39AA3ABA3BCA3B3
:101EB000DCC089A19AA1ABA1BCA19E01275D3F4FC7
:101EC000F901E80FF91F8081982F84E0692F0E94A3
:101ED00034098FA1992787FD9095A92FB92F8D8F50
:101EE0009E8FAF8FB8A3ADC08D8D9E8DAF8DB8A1E5
:101EF0009E01275D3F4FF901E80FF91F8081982F60
:101F000082E0692F0E94340980E090E0A0E2B1E411
:101F10008B879C87AD87BE876B857C858D859E85ED
:101F200020E030E04AE755E40E941F02DC01CB01CB
:101F30008F839887A987BA876F81788589859A85E5
:101F400020E030E040E85FE30E94790388232CF42E
:101F500081E090E09E838D833FC06F817885898585
:101F60009A8520E03FEF4FE757E40E9419031816C7
:101F70004CF56B857C858D859E8520E030E040E2C8
:101F800051E40E941F02DC01CB01BC01CD010E9483
:101F90004900DC01CB019E838D830FC080E991E075
:101FA0009C838B838B819C810197F1F79C838B832E
:101FB0008D819E8101979E838D838D819E81009767
:101FC00069F714C06F81788589859A850E944900D8
:101FD000DC01CB019E838D838D819E819A838983D1
:101FE00089819A810197F1F79A8389838DA1282F9E
:101FF000332727FD3095432F532F8D8D9E8DAF8D29
:10200000B8A1281739074A075B0781F48EA1282F4A
:10201000332727FD3095432F532F89A19AA1ABA1D8
:10202000BCA1281739074A075B0781F18D8D9E8D6A
:10203000AF8DB8A10197A109B1098D8F9E8FAF8F88
:10204000B8A38D8D9E8DAF8DB8A1BB230CF04CCF66
:1020500089E08FA389A19AA1ABA1BCA10197A10995
:10206000B10989A39AA3ABA3BCA38EA1282F3327C0
:1020700027FD3095432F532F89A19AA1ABA1BCA175
:1020800082179307A407B5070CF013CFE9960FB694
:10209000F894DEBF0FBECDBFCF91DF910895DF93DF
:1020A000CF9300D0CDB7DEB789836A8389816A81F7
:1020B0000E9434090F900F90CF91DF910895DF9324
:1020C000CF93CDB7DEB7AB970FB6F894DEBF0FBE98
:1020D000CDBF8AA76BA78AA59AE0692F0E94F52930
:1020E00089A78AA59AE0692F0E94F529892F88A7D8
:1020F0008BA59AE0692F0E94F5298FA38BA59AE002
:10210000692F0E94F529892F8EA31AA21BA21CA257
:102110001DA21E8E1F8E18A219A21D8E89A58823AE
:102120000CF411C289A58A300CF00DC28FA18A303F
:102130000CF009C28FA188230CF405C29AA58BA5C7
:1021400098170CF002C189A5992787FD9095A92FB2
:10215000B92F8AA39BA3ACA3BDA3E5C08D8D8F70BF
:102160008D8F8AA19BA1ACA1BDA1880F991FAA1F29
:10217000BB1F880F991FAA1FBB1F880F991FAA1F7B
:10218000BB1F880F991FAA1FBB1F982F8D8D892BEE
:102190008D8F88A5992787FD9095A92FB92F8E8FB0
:1021A0009F8FA8A3B9A3A9C08D8D807F8D8F9E8D91
:1021B0008D8D892B8D8F80E090E0A0E2B1E4898F36
:1021C0009A8FAB8FBC8F698D7A8D8B8D9C8D20E023
:1021D00030E04AE755E40E941F02DC01CB018D8B01
:1021E0009E8BAF8BB88F6D897E898F89988D20E00B
:1021F00030E040E85FE30E94790388232CF481E01B
:1022000090E09C8B8B8B3FC06D897E898F89988DE8
:1022100020E03FEF4FE757E40E94190318164CF5F2
:10222000698D7A8D8B8D9C8D20E030E040E251E409
:102230000E941F02DC01CB01BC01CD010E944900BC
:10224000DC01CB019C8B8B8B0FC080E991E09A8BDA
:10225000898B89899A890197F1F79A8B898B8B8968
:102260009C8901979C8B8B8B8B899C89009769F744
:1022700014C06D897E898F89988D0E944900DC0188
:10228000CB019C8B8B8B8B899C89988B8F878F85BF
:1022900098890197F1F7988B8F8782E06D8D0E9466
:1022A00034098EA1282F332727FD3095432F532F34
:1022B0008E8D9F8DA8A1B9A1281739074A075B0702
:1022C00089F48FA1282F332727FD3095432F532FD3
:1022D0008AA19BA1ACA1BDA1281739074A075B07BA
:1022E00009F431C18E8D9F8DA8A1B9A10196A11DC0
:1022F000B11D8E8F9F8FA8A3B9A38E8D9F8DA8A18E
:10230000B9A18A309105A105B1050CF44DCF18A6ED
:102310008AA19BA1ACA1BDA10196A11DB11D8AA35B
:102320009BA3ACA3BDA38FA1282F332727FD3095F6
:10233000432F532F8AA19BA1ACA1BDA12817390718
:102340004A075B070CF00ACFFEC089A5992787FDD5
:102350009095A92FB92F8AA39BA3ACA3BDA3E2C0DC
:102360008D8D8F708D8F8AA19BA1ACA1BDA1880F8F
:10237000991FAA1FBB1F880F991FAA1FBB1F880F79
:10238000991FAA1FBB1F880F991FAA1FBB1F982F39
:102390008D8D892B8D8F88A5992787FD9095A92FE5
:1023A000B92F8E8F9F8FA8A3B9A3A8C08D8D807FD2
:1023B0008D8F9E8D8D8D892B8D8F80E090E0A0E29A
:1023C000B1E48B879C87AD87BE876B857C858D85C7
:1023D0009E8520E030E04AE755E40E941F02DC01C0
:1023E000CB018F839887A987BA876F817885898584
:1023F0009A8520E030E040E85FE30E94790388237B
:102400002CF481E090E09E838D833FC06F817885BE
:1024100089859A8520E03FEF4FE757E40E94190332
:1024200018164CF56B857C858D859E8520E030E007
:1024300040E251E40E941F02DC01CB01BC01CD014E
:102440000E944900DC01CB019E838D830FC080E98F
:1024500091E09C838B838B819C810197F1F79C8316
:102460008B838D819E8101979E838D838D819E813B
:10247000009769F714C06F81788589859A850E94D5
:102480004900DC01CB019E838D838D819E819A83DF
:10249000898389819A810197F1F79A83898382E000
:1024A0006D8D0E9434098EA1282F332727FD30958A
:1024B000432F532F8E8D9F8DA8A1B9A128173907BF
:1024C0004A075B0781F48FA1282F332727FD30951A
:1024D000432F532F8AA19BA1ACA1BDA12817390777
:1024E0004A075B0781F18E8D9F8DA8A1B9A1019745
:1024F000A109B1098E8F9F8FA8A3B9A38E8D9F8D3F
:10250000A8A1B9A1BB230CF051CF89E088A78AA16B
:102510009BA1ACA1BDA10197A109B1098AA39BA36D
:10252000ACA3BDA38FA1282F332727FD3095432FC0
:10253000532F8AA19BA1ACA1BDA182179307A40729
:10254000B5070CF00DCFAB960FB6F894DEBF0FBEFB
:10255000CDBFCF91DF910895DF93CF93CDB7DEB795
:10256000C154D0400FB6F894DEBF0FBECDBFFE0100
:10257000E05CFF4F8083FE01EF5BFF4F6083FE0155
:10258000E05CFF4F80819AE0692F0E94F5298FAFB0
:10259000FE01E05CFF4F80819AE0692F0E94F529DF
:1025A000892F8EAFFE01EF5BFF4F80819AE0692F8C
:1025B0000E94F5298DAFFE01EF5BFF4F80819AE00D
:1025C000692F0E94F529892F8CAF18AE19AE1AAE6B
:1025D0001BAE1CAA1DAA1EAA1FAA1BAA1FA618AAC8
:1025E00019AA1AAA82E390E0A0E0B0E08BA79CA70A
:1025F000ADA7BEA78FAD88230CF4ADC28FAD8A30D6
:102600000CF0A9C28DAD8A300CF0A5C28DAD882327
:102610000CF4A1C2DE01AF5BBF4FFE01E05CFF4FD7
:1026200090818C9198170CF098C18FAD992787FDF8
:102630009095A92FB92F88AF99AFAAAFBBAF7BC137
:102640008EAD992787FD9095A92FB92F8CAB9DABA7
:10265000AEABBFAB5AC11FA618AA19AA1AAA1BC1B2
:1026600088AD99ADAAADBBADFC01E958FF4F908193
:1026700082E0692F0E94340982E066E040E00E9417
:10268000C80682E065E041E00E94C80680E090E074
:10269000A0E2B1E48FA398A7A9A7BAA76FA178A5D4
:1026A00089A59AA520E030E04AE755E40E941F0280
:1026B000DC01CB018BA39CA3ADA3BEA36BA17CA12A
:1026C0008DA19EA120E030E040E85FE30E94790305
:1026D00088232CF481E090E09AA389A33FC06BA1EA
:1026E0007CA18DA19EA120E03FEF4FE757E40E941F
:1026F000190318164CF56FA178A589A59AA520E0B5
:1027000030E040E251E40E941F02DC01CB01BC0139
:10271000CD010E944900DC01CB019AA389A30FC01F
:1027200080E991E098A38F8F8F8D98A10197F1F7A1
:1027300098A38F8F89A19AA101979AA389A389A1B0
:102740009AA1009769F714C06BA17CA18DA19EA1ED
:102750000E944900DC01CB019AA389A389A19AA117
:102760009E8F8D8F8D8D9E8D0197F1F79E8F8D8F12
:102770008CA99DA9AEA9BFA9FC01E958FF4F908182
:1027800082E0692F0E94340982E066E041E00E9405
:10279000C80682E065E040E00E94C80680E090E064
:1027A000A0E2B1E4898F9A8FAB8FBC8F698D7A8D4F
:1027B0008B8D9C8D20E030E04AE755E40E941F029B
:1027C000DC01CB018D8B9E8BAF8BB88F6D897E89A1
:1027D0008F89988D20E030E040E85FE30E94790324
:1027E00088232CF481E090E09C8B8B8B3FC06D891B
:1027F0007E898F89988D20E03FEF4FE757E40E9454
:10280000190318164CF5698D7A8D8B8D9C8D20E0FF
:1028100030E040E251E40E941F02DC01CB01BC0128
:10282000CD010E944900DC01CB019C8B8B8B0FC03A
:1028300080E991E09A8B898B89899A890197F1F7D0
:102840009A8B898B8B899C8901979C8B8B8B8B892D
:102850009C89009769F714C06D897E898F89988D4E
:102860000E944900DC01CB019C8B8B8B8B899C895E
:10287000988B8F878F8598890197F1F7988B8F8731
:102880008FA598A9A9A9BAA90196A11DB11D8FA7C5
:1028900098ABA9ABBAAB2FA538A949A95AA98BA562
:1028A0009CA5ADA5BEA5281739074A075B0708F404
:1028B000D7CE8CAD282F332727FD3095432F532FAC
:1028C0008CA99DA9AEA9BFA9281739074A075B079C
:1028D00089F48DAD282F332727FD3095432F532FB3
:1028E00088AD99ADAAADBBAD281739074A075B077C
:1028F00009F431C18CA99DA9AEA9BFA90196A11D5A
:10290000B11D8CAB9DABAEABBFAB8CA99DA9AEA9E5
:10291000BFA98A309105A105B1050CF49CCE1EAE6D
:1029200088AD99ADAAADBBAD0196A11DB11D88AF13
:1029300099AFAAAFBBAF8DAD282F332727FD3095B8
:10294000432F532F88AD99ADAAADBBAD28173907DA
:102950004A075B070CF074CEFEC08FAD992787FD48
:102960009095A92FB92F88AF99AFAAAFBBAFE2C09E
:102970008BA98F708BAB88AD99ADAAADBBAD880F1D
:10298000991FAA1FBB1F880F991FAA1FBB1F880F63
:10299000991FAA1FBB1F880F991FAA1FBB1F982F23
:1029A0008BA9892B8BAB8EAD992787FD9095A92F8D
:1029B000B92F8CAB9DABAEABBFABA8C08BA9807F52
:1029C0008BAB9CA98BA9892B8BAB80E090E0A0E21C
:1029D000B1E48B879C87AD87BE876B857C858D85B1
:1029E0009E8520E030E04AE755E40E941F02DC01AA
:1029F000CB018F839887A987BA876F81788589856E
:102A00009A8520E030E040E85FE30E947903882364
:102A10002CF481E090E09E838D833FC06F817885A8
:102A200089859A8520E03FEF4FE757E40E9419031C
:102A300018164CF56B857C858D859E8520E030E0F1
:102A400040E251E40E941F02DC01CB01BC01CD0138
:102A50000E944900DC01CB019E838D830FC080E979
:102A600091E09C838B838B819C810197F1F79C8300
:102A70008B838D819E8101979E838D838D819E8125
:102A8000009769F714C06F81788589859A850E94BF
:102A90004900DC01CB019E838D838D819E819A83C9
:102AA000898389819A810197F1F79A83898382E0EA
:102AB0006BA90E9434098CAD282F332727FD309550
:102AC000432F532F8CA99DA9AEA9BFA92817390759
:102AD0004A075B0781F48DAD282F332727FD3095FA
:102AE000432F532F88AD99ADAAADBBAD2817390739
:102AF0004A075B0781F18CA99DA9AEA9BFA90197DF
:102B0000A109B1098CAB9DABAEABBFAB8CA99DA9A4
:102B1000AEA9BFA9BB230CF051CF89E08EAF88AD21
:102B200099ADAAADBBAD0197A109B10988AF99AF25
:102B3000AAAFBBAF8DAD282F332727FD3095432F8C
:102B4000532F88AD99ADAAADBBAD82179307A407EB
:102B5000B5070CF00DCFCF5BDF4F0FB6F894DEBF9B
:102B60000FBECDBFCF91DF9108950F931F93DF93D9
:102B7000CF93CDB7DEB7CC58D0400FB6F894DEBFB8
:102B80000FBECDBFFE01E757FF4F80E090E0ACE005
:102B9000B2E480839183A283B3838E010B571F4FCE
:102BA000FE01E757FF4F608171818281938120E0B0
:102BB00030E04AE755E40E941F02DC01CB01F80136
:102BC00080839183A283B383FE01EB57FF4F608123
:102BD00071818281938120E030E040E85FE30E94D0
:102BE0007903882344F4FE01ED57FF4F81E090E024
:102BF0009183808364C0FE01EB57FF4F6081718138
:102C00008281938120E03FEF4FE757E40E94190350
:102C100018160CF043C0FE01E757FF4F6081718129
:102C20008281938120E030E040E251E40E941F0263
:102C3000DC01CB018E010D571F4FBC01CD010E945D
:102C40004900DC01CB01F801918380831FC0FE01A4
:102C5000EF57FF4F80E991E091838083FE01EF57AA
:102C6000FF4F808191810197F1F7FE01EF57FF4FF0
:102C700091838083DE01AD57BF4FFE01ED57FF4FBB
:102C800080819181019711969C938E93FE01ED575F
:102C9000FF4F808191810097D1F627C08E010D579B
:102CA0001F4FFE01EB57FF4F60817181828193813D
:102CB0000E944900DC01CB01F80191838083DE0191
:102CC000A158BF4FFE01ED57FF4F808191818D9339
:102CD0009C93FE01E158FF4F808191810197F1F7AC
:102CE000FE01E158FF4F9183808380E30E94A51C81
:102CF000FE01E558FF4F80E090E0A0EAB0E4808359
:102D00009183A283B3838E0109581F4FFE01E558BA
:102D1000FF4F608171818281938120E030E04AE73A
:102D200055E40E941F02DC01CB01F80180839183EE
:102D3000A283B383FE01E958FF4F608171818281D4
:102D4000938120E030E040E85FE30E94790388232C
:102D500044F4FE01EB58FF4F81E090E091838083C3
:102D600064C0FE01E958FF4F6081718182819381C7
:102D700020E03FEF4FE757E40E94190318160CF0CC
:102D800043C0FE01E558FF4F6081718182819381CC
:102D900020E030E040E251E40E941F02DC01CB0160
:102DA0008E010B581F4FBC01CD010E944900DC0170
:102DB000CB01F801918380831FC0FE01ED58FF4FC6
:102DC00080E991E091838083FE01ED58FF4F80817F
:102DD00091810197F1F7FE01ED58FF4F91838083B8
:102DE000DE01AB58BF4FFE01EB58FF4F8081918150
:102DF000019711969C938E93FE01EB58FF4F8081B3
:102E000091810097D1F627C08E010B581F4FFE010C
:102E1000E958FF4F60817181828193810E9449004E
:102E2000DC01CB01F80191838083DE01AF58BF4FF5
:102E3000FE01EB58FF4F808191818D939C93FE01A1
:102E4000EF58FF4F808191810197F1F7FE01EF5814
:102E5000FF4F9183808380E30E94A51CFE01E3590C
:102E6000FF4F80E090E0A0E8BFE380839183A283DE
:102E7000B3838E0107591F4FFE01E359FF4F608155
:102E800071818281938120E030E04AE755E40E941D
:102E90001F02DC01CB01F80180839183A283B383FD
:102EA000FE01E759FF4F608171818281938120E0AB
:102EB00030E040E85FE30E947903882344F4FE0198
:102EC000E959FF4F81E090E09183808364C0FE0167
:102ED000E759FF4F608171818281938120E03FEF4C
:102EE0004FE757E40E94190318160CF043C0FE0187
:102EF000E359FF4F608171818281938120E030E04E
:102F000040E251E40E941F02DC01CB018E0109590D
:102F10001F4FBC01CD010E944900DC01CB01F8012B
:102F2000918380831FC0FE01EB59FF4F80E991E040
:102F300091838083FE01EB59FF4F8081918101973E
:102F4000F1F7FE01EB59FF4F91838083DE01A95910
:102F5000BF4FFE01E959FF4F808191810197119682
:102F60009C938E93FE01E959FF4F808191810097D8
:102F7000D1F627C08E0109591F4FFE01E759FF4FB7
:102F800060817181828193810E944900DC01CB01C3
:102F9000F80191838083DE01AD59BF4FFE01E959ED
:102FA000FF4F808191818D939C93FE01ED59FF4FDE
:102FB000808191810197F1F7FE01ED59FF4F9183D7
:102FC000808380E30E94A51CFE01E15AFF4F80E050
:102FD00090E0A0E8BFE380839183A283B3838E0156
:102FE000055A1F4FFE01E15AFF4F608171818281B6
:102FF000938120E030E04AE755E40E941F02DC01A3
:10300000CB01F80180839183A283B383FE01E55A4B
:10301000FF4F608171818281938120E030E040E840
:103020005FE30E947903882344F4FE01E75AFF4FCF
:1030300081E090E09183808364C0FE01E55AFF4FF8
:10304000608171818281938120E03FEF4FE757E4F7
:103050000E94190318160CF043C0FE01E15AFF4FFD
:10306000608171818281938120E030E040E251E40F
:103070000E941F02DC01CB018E01075A1F4FBC01C9
:10308000CD010E944900DC01CB01F80191838083CE
:103090001FC0FE01E95AFF4F80E991E091838083D0
:1030A000FE01E95AFF4F808191810197F1F7FE01FE
:1030B000E95AFF4F91838083DE01A75ABF4FFE017B
:1030C000E75AFF4F80819181019711969C938E93CF
:1030D000FE01E75AFF4F808191810097D1F627C00A
:1030E0008E01075A1F4FFE01E55AFF4F6081718123
:1030F000828193810E944900DC01CB01F801918318
:103100008083DE01AB5ABF4FFE01E75AFF4F80813B
:1031100091818D939C93FE01EB5AFF4F80819181A9
:103120000197F1F7FE01EB5AFF4F9183808380E214
:103130000E94A51CFE01EF5AFF4F80E090E0A0E83E
:10314000BFE380839183A283B3838E01035B1F4F10
:10315000FE01EF5AFF4F608171818281938120E0EF
:1031600030E04AE755E40E941F02DC01CB01F80180
:1031700080839183A283B383FE01E35BFF4F608171
:1031800071818281938120E030E040E85FE30E941A
:103190007903882344F4FE01E55BFF4F81E090E072
:1031A0009183808364C0FE01E35BFF4F6081718186
:1031B0008281938120E03FEF4FE757E40E9419039B
:1031C00018160CF043C0FE01EF5AFF4F6081718169
:1031D0008281938120E030E040E251E40E941F02AE
:1031E000DC01CB018E01055B1F4FBC01CD010E94AC
:1031F0004900DC01CB01F801918380831FC0FE01EF
:10320000E75BFF4F80E991E091838083FE01E75BFC
:10321000FF4F808191810197F1F7FE01E75BFF4F3E
:1032200091838083DE01A55BBF4FFE01E55BFF4F0D
:1032300080819181019711969C938E93FE01E55BAD
:10324000FF4F808191810097D1F627C08E01055BE9
:103250001F4FFE01E35BFF4F60817181828193818B
:103260000E944900DC01CB01F80191838083DE01DB
:10327000A95BBF4FFE01E55BFF4F808191818D937C
:103280009C93FE01E95BFF4F808191810197F1F7EB
:10329000FE01E95BFF4F9183808388E20E94B51BAA
:1032A000FE01ED5BFF4F80E090E0A0E8BFE380838C
:1032B0009183A283B3838E01015C1F4FFE01ED5BFE
:1032C000FF4F608171818281938120E030E04AE785
:1032D00055E40E941F02DC01CB01F8018083918339
:1032E000A283B383FE01FF96608171818281938105
:1032F00020E030E040E85FE30E94790388232CF46B
:1033000081E090E09EAF8DAF46C0FE01FF966081E8
:1033100071818281938120E03FEF4FE757E40E9463
:103320001903181664F5FE01ED5BFF4F6081718192
:103330008281938120E030E040E251E40E941F024C
:10334000DC01CB01BC01CD010E944900DC01CB01B5
:103350009EAF8DAF0FC080E991E09CAF8BAF8BAD7E
:103360009CAD0197F1F79CAF8BAF8DAD9EAD0197F2
:103370009EAF8DAF8DAD9EAD009769F716C0FE0173
:10338000FF9660817181828193810E944900DC01F6
:10339000CB019EAF8DAF8DAD9EAD9AAF89AF89AD9C
:1033A0009AAD0197F1F79AAF89AF88E00E94B51BFB
:1033B00080E090E0A0E8BFE38DAB9EABAFABB8AFD1
:1033C0006DA97EA98FA998AD20E030E04AE755E4C9
:1033D0000E941F02DC01CB0189AB9AABABABBCAB4B
:1033E00069A97AA98BA99CA920E030E040E85FE3B5
:1033F0000E94790388232CF481E090E098AB8FA79A
:103400003FC069A97AA98BA99CA920E03FEF4FE7AB
:1034100057E40E94190318164CF56DA97EA98FA9CF
:1034200098AD20E030E040E251E40E941F02DC0150
:10343000CB01BC01CD010E944900DC01CB0198AB5E
:103440008FA70FC080E991E09EA78DA78DA59EA5AF
:103450000197F1F79EA78DA78FA598A9019798AB23
:103460008FA78FA598A9009769F714C069A97AA9B1
:103470008BA99CA90E944900DC01CB0198AB8FA7C6
:103480008FA598A99CA78BA78BA59CA50197F1F761
:103490009CA78BA781E00E94B51B80E090E0A0EA8A
:1034A000B0E48FA398A7A9A7BAA76FA178A589A50B
:1034B0009AA520E030E04AE755E40E941F02DC01B3
:1034C000CB018BA39CA3ADA3BEA36BA17CA18DA1BB
:1034D0009EA120E030E040E85FE30E94790388236A
:1034E0002CF481E090E09AA389A33FC06BA17CA15A
:1034F0008DA19EA120E03FEF4FE757E40E94190302
:1035000018164CF56FA178A589A59AA520E030E0A2
:1035100040E251E40E941F02DC01CB01BC01CD015D
:103520000E944900DC01CB019AA389A30FC080E966
:1035300091E098A38F8F8F8D98A10197F1F798A3B1
:103540008F8F89A19AA101979AA389A389A19AA192
:10355000009769F714C06BA17CA18DA19EA10E9468
:103560004900DC01CB019AA389A389A19AA19E8F6E
:103570008D8F8D8D9E8D0197F1F79E8F8D8F8CE0B5
:103580000E94B51B80E090E0A0E8BFE3898F9A8F8E
:10359000AB8FBC8F698D7A8D8B8D9C8D20E030E058
:1035A0004AE755E40E941F02DC01CB018D8B9E8B04
:1035B000AF8BB88F6D897E898F89988D20E030E040
:1035C00040E85FE30E94790388232CF481E090E0D7
:1035D0009C8B8B8B3FC06D897E898F89988D20E075
:1035E0003FEF4FE757E40E94190318164CF5698D19
:1035F0007A8D8B8D9C8D20E030E040E251E40E947A
:103600001F02DC01CB01BC01CD010E944900DC019D
:10361000CB019C8B8B8B0FC080E991E09A8B898BBF
:1036200089899A890197F1F79A8B898B8B899C8973
:1036300001979C8B8B8B8B899C89009769F714C0B1
:103640006D897E898F89988D0E944900DC01CB01AC
:103650009C8B8B8B8B899C89988B8F878F85988986
:103660000197F1F7988B8F8786E00E94B51B80E069
:1036700090E0A0E8BFE38B879C87AD87BE876B8512
:103680007C858D859E8520E030E04AE755E40E94E8
:103690001F02DC01CB018F839887A987BA876F81CE
:1036A000788589859A8520E030E040E85FE30E94D4
:1036B000790388232CF481E090E09E838D833FC0C2
:1036C0006F81788589859A8520E03FEF4FE757E441
:1036D0000E94190318164CF56B857C858D859E8597
:1036E00020E030E040E251E40E941F02DC01CB0107
:1036F000BC01CD010E944900DC01CB019E838D837A
:103700000FC080E991E09C838B838B819C81019722
:10371000F1F79C838B838D819E8101979E838D839E
:103720008D819E81009769F714C06F8178858985A6
:103730009A850E944900DC01CB019E838D838D8197
:103740009E819A83898389819A810197F1F79A836F
:103750008983C457DF4F0FB6F894DEBF0FBECDBFCD
:10376000CF91DF911F910F910895DF93CF93CDB744
:10377000DEB72F970FB6F894DEBF0FBECDBF8F8791
:1037800081E063E040E00E94C80681E062E041E041
:103790000E94C8068F8582958F70982F917082E065
:1037A00060E0492F0E94C8068F85829586958770B4
:1037B000982F917082E061E0492F0E94C8068F85A2
:1037C0008295869586958370982F917082E062E04D
:1037D000492F0E94C8068F85982F991F9927991FF6
:1037E00082E064E0492F0E94C80681E062E040E088
:1037F0000E94C80681E062E041E00E94C8068F8511
:10380000982F917082E060E0492F0E94C8068F8552
:103810008695982F917082E061E0492F0E94C8063A
:103820008F8586958695982F917082E062E0492F6A
:103830000E94C8068F85869586958695982F9170EB
:1038400082E064E0492F0E94C80681E062E040E027
:103850000E94C80680E090E0A0EAB0E48B879C87D5
:10386000AD87BE876B857C858D859E8520E030E0A9
:103870004AE755E40E941F02DC01CB018F83988741
:10388000A987BA876F81788589859A8520E030E09D
:1038900040E85FE30E94790388232CF481E090E004
:1038A0009E838D833FC06F81788589859A8520E0CE
:1038B0003FEF4FE757E40E94190318164CF56B854C
:1038C0007C858D859E8520E030E040E251E40E94B9
:1038D0001F02DC01CB01BC01CD010E944900DC01CB
:1038E000CB019E838D830FC080E991E09C838B8305
:1038F0008B819C810197F1F79C838B838D819E81C5
:1039000001979E838D838D819E81009769F714C0F6
:103910006F81788589859A850E944900DC01CB01F9
:103920009E838D838D819E819A83898389819A81EB
:103930000197F1F79A8389832F960FB6F894DEBF2B
:103940000FBECDBFCF91DF910895DF93CF93CDB759
:10395000DEB72F970FB6F894DEBF0FBECDBF8F87AF
:1039600081E063E040E00E94C80681E062E041E05F
:103970000E94C8068F8582958F70982F917082E083
:1039800060E0492F0E94C8068F85829586958770D2
:10399000982F917082E061E0492F0E94C8068F85C0
:1039A0008295869586958370982F917082E062E06B
:1039B000492F0E94C8068F85982F991F9927991F14
:1039C00082E064E0492F0E94C80681E062E040E0A6
:1039D0000E94C80680E090E0A0EAB0E48B879C8754
:1039E000AD87BE876B857C858D859E8520E030E028
:1039F0004AE755E40E941F02DC01CB018F839887C0
:103A0000A987BA876F81788589859A8520E030E01B
:103A100040E85FE30E94790388232CF481E090E082
:103A20009E838D833FC06F81788589859A8520E04C
:103A30003FEF4FE757E40E94190318164CF56B85CA
:103A40007C858D859E8520E030E040E251E40E9437
:103A50001F02DC01CB01BC01CD010E944900DC0149
:103A6000CB019E838D830FC080E991E09C838B8383
:103A70008B819C810197F1F79C838B838D819E8143
:103A800001979E838D838D819E81009769F714C075
:103A90006F81788589859A850E944900DC01CB0178
:103AA0009E838D838D819E819A83898389819A816A
:103AB0000197F1F79A8389832F960FB6F894DEBFAA
:103AC0000FBECDBFCF91DF910895DF93CF93CDB7D8
:103AD000DEB72F970FB6F894DEBF0FBECDBF8F872E
:103AE00081E063E041E00E94C80681E062E041E0DD
:103AF0000E94C8068F8582958F70982F917082E002
:103B000060E0492F0E94C8068F8582958695877050
:103B1000982F917082E061E0492F0E94C8068F853E
:103B20008295869586958370982F917082E062E0E9
:103B3000492F0E94C8068F85982F991F9927991F92
:103B400082E064E0492F0E94C80681E062E040E024
:103B50000E94C80681E062E041E00E94C8068F85AD
:103B6000982F917082E060E0492F0E94C8068F85EF
:103B70008695982F917082E061E0492F0E94C806D7
:103B80008F8586958695982F917082E062E0492F07
:103B90000E94C8068F85869586958695982F917088
:103BA00082E064E0492F0E94C80681E062E040E0C4
:103BB0000E94C80680E090E0A0EAB0E48B879C8772
:103BC000AD87BE876B857C858D859E8520E030E046
:103BD0004AE755E40E941F02DC01CB018F839887DE
:103BE000A987BA876F81788589859A8520E030E03A
:103BF00040E85FE30E94790388232CF481E090E0A1
:103C00009E838D833FC06F81788589859A8520E06A
:103C10003FEF4FE757E40E94190318164CF56B85E8
:103C20007C858D859E8520E030E040E251E40E9455
:103C30001F02DC01CB01BC01CD010E944900DC0167
:103C4000CB019E838D830FC080E991E09C838B83A1
:103C50008B819C810197F1F79C838B838D819E8161
:103C600001979E838D838D819E81009769F714C093
:103C70006F81788589859A850E944900DC01CB0196
:103C80009E838D838D819E819A83898389819A8188
:103C90000197F1F79A8389832F960FB6F894DEBFC8
:103CA0000FBECDBFCF91DF910895DF93CF9300D0AA
:103CB0000F92CDB7DEB79B838A8319820EC08981AC
:103CC000282F30E08A819B81FC01E20FF31F808165
:103CD0000E94651D89818F5F89838981282F30E04B
:103CE0008A819B81FC01E20FF31F8081882339F7D1
:103CF0000F900F900F90CF91DF9108950F931F9326
:103D0000DF93CF93CDB7DEB72E970FB6F894DEBF13
:103D10000FBECDBF69877A878B879C875E874D876B
:103D20001D821E821F82188683E190E0A0E0B0E031
:103D300089839A83AB83BC8329813A818D859E8553
:103D4000FC01E20FF31F108289819A81AB81BC8153
:103D50000197A109B10989839A83AB83BC838985C3
:103D60009A85AB85BC85BB230CF04DC081E090E00B
:103D7000A0E0B0E08D839E83AF83B88789859A8564
:103D8000AB85BC85B095A095909581959F4FAF4F21
:103D9000BF4F89879A87AB87BC8735C029813A8115
:103DA0008D859E858C01020F131F89859A85AB85B1
:103DB000BC852AE030E040E050E0BC01CD010E942B
:103DC000152ADC01CB01805DF801808389819A810D
:103DD000AB81BC810197A109B10989839A83AB8327
:103DE000BC8389859A85AB85BC852AE030E040E0BC
:103DF00050E0BC01CD010E94152ADA01C901898772
:103E00009A87AB87BC8789859A85AB85BC850097E7
:103E1000A105B10519F68D819E81AF81B885009706
:103E2000A105B105A1F029813A818D859E85FC010E
:103E3000E20FF31F8DE2808389819A81AB81BC817F
:103E40000197A109B10989839A83AB83BC838981D6
:103E50009A81AB81BC810196A11DB11D89839A8392
:103E6000AB83BC8329813A818D859E85820F931F08
:103E70002E960FB6F894DEBF0FBECDBFCF91DF9167
:103E80001F910F910895DF93CF93CDB7DEB76A9757
:103E90000FB6F894DEBF0FBECDBF6F8B788F898FC2
:103EA0009A8F8F89988DA98DBA8D0097A105B1053C
:103EB00099F08F89988DA98DBA8D9E012D5F3F4F06
:103EC000BC01CD01A9010E947E1E9A83898389814C
:103ED0009A810E94551E03C080E30E94651D6A9668
:103EE0000FB6F894DEBF0FBECDBFCF91DF9108951E
:103EF000DF93CF93CDB7DEB7A6970FB6F894DEBFAA
:103F00000FBECDBF6BA37CA38DA39EA36BA17CA191
:103F10008DA19EA120E030E048EC52E40E941F02F7
:103F2000DC01CB01BC01CD010E94A903DC01CB0166
:103F30008B879C87AD87BE878B859C85AD85BE852D
:103F40009E01215F3F4FBC01CD01A9010E947E1E51
:103F50009A8789871D821E821F82188619821A827B
:103F60001B821C820BC08D819E81AF81B88501961A
:103F7000A11DB11D8D839E83AF83B8872D813E81A6
:103F800089859A85FC01E20FF31F8081882359F708
:103F90008D819E81AF81B8850297A109B1098D837A
:103FA0009E83AF83B8878D819E81AF81B88500974E
:103FB000A105B10549F580E30E94651D25C0298151
:103FC0003A814B815C818D819E81AF81B8852817B4
:103FD00039074A075B0719F48EE20E94651D2981A3
:103FE0003A8189859A85FC01E20FF31F80810E9446
:103FF000651D89819A81AB81BC810196A11DB11D8E
:1040000089839A83AB83BC8329813A8189859A8588
:10401000FC01E20FF31F8081882389F6A6960FB674
:10402000F894DEBF0FBECDBFCF91DF910895DF932F
:10403000CF9300D00F92CDB7DEB78A836B8380E831
:1040400089838A81882321F48B818058898314C0D5
:104050008A81813021F48B81805489830DC08A81CB
:10406000823021F48B818C56898306C08A8183300B
:1040700019F48B818C528983898180688983898135
:104080000E94B51B0F900F900F90CF91DF91089574
:10409000DF93CF93CDB7DEB727970FB6F894DEBF87
:1040A0000FBECDBF9C838B836D834E832F838E8108
:1040B0006F810E9417208D810E94651D1A821982CE
:1040C0008D81883030F58D81882F90E0880F991F81
:1040D000880F991F880F991F8A838A8180648A8339
:1040E0008A818F778A838A810E94B51B19820EC0CC
:1040F0008981282F30E08B819C81FC01E20FF31F26
:1041000080810E94651D89818F5F898389818830C4
:1041100078F382E00E94B51B27960FB6F894DEBFB5
:104120000FBECDBFCF91DF910895DF93CF93CDB771
:10413000DEB7A1970FB6F894DEBF0FBECDBF8FEFED
:104140008B83CE0104969E8F8D8FE5EFF0E0F8A370
:10415000EF8FF0E1F9A3EF8DF8A100808F8D98A18A
:10416000019698A38F8FED8DFE8D00828D8D9E8D93
:1041700001969E8F8D8F99A1915099A3E9A1EE236D
:1041800051F787E08C8B86E08D8B85E08E8B83E00A
:104190008F8B85E0888F84E0898F83E08A8F82E02F
:1041A0008B8F1A826BC08A81282F30E0CE01449613
:1041B000FC01E20FF31F908184E0692F40E00E9430
:1041C000C806198246C08981282F30E0CE01489662
:1041D000FC01E20FF31F908183E0692F0E94D60754
:1041E0008823A1F58981282F30E08A81482F50E06B
:1041F000220F331F220F331FCE010196820F931F10
:10420000840F951FFC01339680818B838981282F31
:1042100030E0CE014896FC01E20FF31F908183E06D
:10422000692F0E94D607882389F38A81282F30E0DE
:10423000CE014496FC01E20FF31F908184E0692FC8
:1042400041E00E94C806FB81FC8F1EC089818F5F00
:1042500089838981843008F4B6CF8A81282F30E0A1
:10426000CE014496FC01E20FF31F908184E0692F98
:1042700041E00E94C8068A818F5F8A838A818430E8
:1042800008F491CF8B818C8F8C8DA1960FB6F8940A
:10429000DEBF0FBECDBFCF91DF9108950F931F9367
:1042A000DF93CF93CDB7DEB7C654D0400FB6F894A6
:1042B000DEBF0FBECDBF0E94A30583E06FEF0E945B
:1042C00034090E94B5150E9477240E94DD24FE0166
:1042D000ED5BFF4F80E090E0A8ECB2E48083918337
:1042E000A283B3838E01015C1F4FFE01ED5BFF4F84
:1042F000608171818281938120E030E04AE755E45A
:104300000E941F02DC01CB01F80180839183A2830C
:10431000B383FE01FF96608171818281938120E0E9
:1043200030E040E85FE30E94790388232CF481E0C9
:1043300090E09EAF8DAF46C0FE01FF966081718117
:104340008281938120E03FEF4FE757E40E941903F9
:10435000181664F5FE01ED5BFF4F6081718182816B
:10436000938120E030E040E251E40E941F02DC0132
:10437000CB01BC01CD010E944900DC01CB019EAF05
:104380008DAF0FC080E991E09CAF8BAF8BAD9CAD42
:104390000197F1F79CAF8BAF8DAD9EAD01979EAFAE
:1043A0008DAF8DAD9EAD009769F716C0FE01FF96EB
:1043B00060817181828193810E944900DC01CB017F
:1043C0009EAF8DAF8DAD9EAD9AAF89AF89AD9AADE1
:1043D0000197F1F79AAF89AF80910A01882351F4D0
:1043E00081E080930A010E947F2983E066E041E03A
:1043F0000E94C8060E9495208093820080918200CE
:104400008F3F09F4BCC080910701882371F580912A
:104410008200883041F480915B01833021F082E09A
:1044200080935C0122C080918200843041F48091AD
:104430005B01882321F081E080935C0116C08091AC
:104440008200863039F480915B01813019F010923E
:104450005C010BC080918200823039F480915B0155
:10446000823019F083E080935C0180918200833474
:1044700009F085C081E00E94B51B1092070183E01E
:10448000809381000E944B290E9477240E94DD24A2
:1044900080E090E0A6E9B3E48DAB9EABAFABB8AFE4
:1044A0006DA97EA98FA998AD20E030E04AE755E4D8
:1044B0000E941F02DC01CB0189AB9AABABABBCAB5A
:1044C00069A97AA98BA99CA920E030E040E85FE3C4
:1044D0000E94790388232CF481E090E098AB8FA7A9
:1044E0003FC069A97AA98BA99CA920E03FEF4FE7BB
:1044F00057E40E94190318164CF56DA97EA98FA9DF
:1045000098AD20E030E040E251E40E941F02DC015F
:10451000CB01BC01CD010E944900DC01CB0198AB6D
:104520008FA70FC080E991E09EA78DA78DA59EA5BE
:104530000197F1F79EA78DA78FA598A9019798AB32
:104540008FA78FA598A9009769F714C069A97AA9C0
:104550008BA99CA90E944900DC01CB0198AB8FA7D5
:104560008FA598A99CA78BA78BA59CA50197F1F770
:104570009CA78BA783E066E040E00E94C80681E02C
:104580000E94B51B80910701882399F5809108014D
:1045900090910901692F0E9417208FE60E94651DE6
:1045A0000E9472250E94A62980915D01282F332741
:1045B00027FD309580915E01482F552747FD509586
:1045C000C901880F991F880F991F9C01220F331F63
:1045D000220F331F820F931F840F951FFC01E55F8D
:1045E000FE4F8081813009F00AC181E0809307018C
:1045F000F3CE1092070181E065E00E94172083E06E
:1046000066E041E00E94C80680E690E00E94551EE8
:1046100080E090E0A6E9B3E48FA398A7A9A7BAA782
:104620006FA178A589A59AA520E030E04AE755E476
:104630000E941F02DC01CB018BA39CA3ADA3BEA3F0
:104640006BA17CA18DA19EA120E030E040E85FE35A
:104650000E94790388232CF481E090E09AA389A337
:104660003FC06BA17CA18DA19EA120E03FEF4FE751
:1046700057E40E94190318164CF56FA178A589A577
:104680009AA520E030E040E251E40E941F02DC01E4
:10469000CB01BC01CD010E944900DC01CB019AA3F2
:1046A00089A30FC080E991E098A38F8F8F8D98A187
:1046B0000197F1F798A38F8F89A19AA101979AA3E7
:1046C00089A389A19AA1009769F714C06BA17CA165
:1046D0008DA19EA10E944900DC01CB019AA389A370
:1046E00089A19AA19E8F8D8F8D8D9E8D0197F1F757
:1046F0009E8F8D8F83E066E040E00E94C80680E0D8
:1047000090EEA2E9B5E4898F9A8FAB8FBC8F698D4B
:104710007A8D8B8D9C8D20E030E04AE755E40E9435
:104720001F02DC01CB018D8B9E8BAF8BB88F6D8907
:104730007E898F89988D20E030E040E85FE30E9419
:10474000790388232CF481E090E09C8B8B8B3FC015
:104750006D897E898F89988D20E03FEF4FE757E480
:104760000E94190318164CF5698D7A8D8B8D9C8DDE
:1047700020E030E040E251E40E941F02DC01CB0166
:10478000BC01CD010E944900DC01CB019C8B8B8BCD
:104790000FC080E991E09A8B898B89899A8901976A
:1047A000F1F79A8B898B8B899C8901979C8B8B8BDA
:1047B0008B899C89009769F714C06D897E898F89E0
:1047C000988D0E944900DC01CB019C8B8B8B8B89DF
:1047D0009C89988B8F878F8598890197F1F7988BA3
:1047E0008F8781E00E94B51B83E0809381000E9447
:1047F0004B290E9477240E94DD2410920A0180E058
:1048000090E0A6E9B3E48B879C87AD87BE876B8574
:104810007C858D859E8520E030E04AE755E40E9446
:104820001F02DC01CB018F839887A987BA876F812C
:10483000788589859A8520E030E040E85FE30E9432
:10484000790388232CF481E090E09E838D833FC020
:104850006F81788589859A8520E03FEF4FE757E49F
:104860000E94190318164CF56B857C858D859E85F5
:1048700020E030E040E251E40E941F02DC01CB0165
:10488000BC01CD010E944900DC01CB019E838D83D8
:104890000FC080E991E09C838B838B819C81019781
:1048A000F1F79C838B838D819E8101979E838D83FD
:1048B0008D819E81009769F714C06F817885898505
:1048C0009A850E944900DC01CB019E838D838D81F6
:1048D0009E819A83898389819A810197F1F79A83CE
:1048E000898383E066E040E00E94C80675CDDF93CF
:1048F000CF930F92CDB7DEB7198219824DC089814F
:10490000282F332727FD3095C901880F991F820F63
:10491000931F880F991FFC01E55AFE4F1082898171
:10492000282F332727FD3095C901880F991F820F43
:10493000931F880F991FFC01E45AFE4F1082898152
:104940008823A1F48981282F332727FD309543E858
:1049500050E0C901880F991F820F931F880F991F7C
:10496000FC01E15AFE4F5183408313C08981282FF7
:10497000332727FD309543EA50E0C901880F991F7E
:10498000820F931F880F991FFC01E15AFE4F51833C
:10499000408389818F5F89838981282F332727FD71
:1049A000309580918100882F90E0281739070CF40A
:1049B000A6CF0F90CF91DF910895DF93CF9300D0D2
:1049C000CDB7DEB71A8281E089831A8279C08A81E5
:1049D000282F332727FD3095C901880F991F820F93
:1049E000931F0196880F991FFC01E55AFE4F108214
:1049F0008A81282F332727FD30959A818AE0891BE9
:104A0000482FC901880F991F820F931F880F991F84
:104A1000FC01E25AFE4F40838A81882319F481E029
:104A2000898312C08A81282F332727FD30958091F2
:104A30008100882F90E001972817390719F482E048
:104A4000898302C083E089838A81282F332727FD49
:104A50003095C901880F991F820F931F880F991FE6
:104A6000FC01E15AFE4F408151818A81282F332772
:104A700027FD3095C901880F991F820F931F01965A
:104A8000880F991FFC01E55AFE4F8081782F8A819B
:104A9000282F332727FD3095C901880F991F820FD2
:104AA000931F880F991FFC01E25AFE4F8081282F27
:104AB000CA016981472F0E9448208A818F5F8A83BB
:104AC0008A81282F332727FD309580918100882FF8
:104AD00090E0281739070CF47ACF0F900F90CF9100
:104AE000DF9108950F931F93DF93CF930F92CDB76C
:104AF000DEB7198280918100815089838981282FB6
:104B0000332727FD3095C901880F991F820F931F06
:104B10000196880F991FFC01E55AFE4F8081682F8E
:104B2000772767FD70958981282F332727FD3095DA
:104B3000C901880F991F820F931F880F991FFC01CD
:104B4000E25AFE4F8081482F552747FD5095CB01F3
:104B5000880F991F880F991F9C01220F331F220F66
:104B6000331F820F931F840F951FFC01E55FFE4FDB
:104B70001082EAC28981882309F4FDC08981482F07
:104B8000552747FD50958981992787FD90959C0170
:104B900021503040C901880F991F820F931F880F41
:104BA000991FFC01E55AFE4F2081CA01880F991F09
:104BB000840F951F880F991FFC01E55AFE4F208333
:104BC0008981482F552747FD50958981992787FD71
:104BD00090959C0121503040C901880F991F820F88
:104BE000931F880F991FFC01E45AFE4F2081CA01D0
:104BF000880F991F840F951F880F991FFC01E45A95
:104C0000FE4F20838981482F552747FD5095898184
:104C1000992787FD90959C0121503040C901880F4C
:104C2000991F820F931F0196880F991FFC01E55A67
:104C3000FE4F2081CA01880F991F840F951F01968E
:104C4000880F991FFC01E55AFE4F20838981482F68
:104C5000552747FD50958981992787FD90959C019F
:104C600021503040C901880F991F820F931F880F70
:104C7000991FFC01E25AFE4F2081CA01880F991F3B
:104C8000840F951F880F991FFC01E25AFE4F208365
:104C90008981082F112707FD10958981282F332737
:104CA00027FD3095C901880F991F820F931F880F28
:104CB000991FFC01E55AFE4F40818981282F332737
:104CC00027FD3095C901880F991F820F931F880F08
:104CD000991FFC01E45AFE4F9081842F692F0E9496
:104CE000AE289C01C801880F991F800F911F880F63
:104CF000991FFC01E15AFE4F318320838981282FBF
:104D0000332727FD3095C901880F991F820F931F04
:104D10000196880F991FFC01E55AFE4F8081682F8C
:104D2000772767FD70958981282F332727FD3095D8
:104D3000C901880F991F820F931F880F991FFC01CB
:104D4000E25AFE4F8081482F552747FD5095CB01F1
:104D5000880F991F880F991F9C01220F331F220F64
:104D6000331F820F931F840F951FFC01E55FFE4FD9
:104D700081E080831CC18981482F552747FD5095CC
:104D80008981282F332727FD3095C901880F991F66
:104D9000820F931F880F991FFC01E45AFE4F208158
:104DA000CA01880F991F840F951F880F991FFC0156
:104DB000E55AFE4F20838981482F552747FD50959E
:104DC00063E870E08981282F332727FD3095C901DA
:104DD000880F991F820F931F880F991FFC01E55AB6
:104DE000FE4F8081882F90E0880F991F880F991FB0
:104DF000880F991F9B01280F391FCA01880F991F1F
:104E0000840F951F880F991FFC01E15AFE4F3183D3
:104E100020838981282F332727FD3095C901880FEA
:104E2000991F820F931F880F991FFC01E45AFE4FB0
:104E30008081833019F58981282F332727FD30950C
:104E4000C901880F991F820F931F0196880F991F20
:104E5000FC01E55AFE4F8081482F4F5FC901880F42
:104E6000991F820F931F0196880F991FFC01E55A25
:104E7000FE4F408383E08093060199C08981282FEB
:104E8000332727FD3095C901880F991F820F931F83
:104E9000880F991FFC01E45AFE4F8081823019F57A
:104EA0008981282F332727FD3095C901880F991F45
:104EB000820F931F0196880F991FFC01E55AFE4F40
:104EC0008081482F4150C901880F991F820F931F7D
:104ED0000196880F991FFC01E55AFE4F408382E03E
:104EE0008093060164C08981282F332727FD3095E0
:104EF000C901880F991F820F931F880F991FFC010A
:104F0000E45AFE4F8081882301F58981282F3327B9
:104F100027FD3095C901880F991F820F931F880FB5
:104F2000991FFC01E25AFE4F8081482F4F5FC90153
:104F3000880F991F820F931F880F991FFC01E25A57
:104F4000FE4F40831092060132C08981282F3327FB
:104F500027FD3095C901880F991F820F931F880F75
:104F6000991FFC01E45AFE4F8081813001F589814F
:104F7000282F332727FD3095C901880F991F820FED
:104F8000931F880F991FFC01E25AFE4F8081482F22
:104F90004150C901880F991F820F931F880F991FD5
:104FA000FC01E25AFE4F408381E080930601898133
:104FB000282F332727FD3095C901880F991F820FAD
:104FC000931F0196880F991FFC01E55AFE4F8081BF
:104FD000843094F08981282F332727FD3095C9012B
:104FE000880F991F820F931F0196880F991FFC014C
:104FF000E55AFE4F108225C08981282F332727FDCF
:105000003095C901880F991F820F931F0196880F51
:10501000991FFC01E55AFE4F8081882394F4898111
:10502000282F332727FD3095C901880F991F820F3C
:10503000931F0196880F991FFC01E55AFE4F83E0EC
:1050400080838981282F332727FD3095C901880F58
:10505000991F820F931F880F991FFC01E25AFE4F80
:10506000808184318CF08981282F332727FD30956A
:10507000C901880F991F820F931F880F991FFC0188
:10508000E25AFE4F108223C08981282F332727FD43
:105090003095C901880F991F820F931F880F991FA0
:1050A000FC01E25AFE4F808188238CF48981282FED
:1050B000332727FD3095C901880F991F820F931F51
:1050C000880F991FFC01E25AFE4F83E1808389819A
:1050D000282F332727FD3095C901880F991F820F8C
:1050E000931F880F991FFC01E15AFE4F40815181A7
:1050F000609106018981282F332727FD3095C9014A
:10510000880F991F820F931F0196880F991FFC012A
:10511000E55AFE4F8081782F8981282F332727FD7C
:105120003095C901880F991F820F931F880F991F0F
:10513000FC01E25AFE4F8081282FCA01472F0E94AE
:105140004820898181508983898188230CF012CD80
:105150000F90CF91DF911F910F910895DF93CF931F
:1051600000D000D00F92CDB7DEB78A836B8319824F
:105170008A81282F30E03D832C838C819D81813072
:10518000910589F12C813D81223031052CF48C81EF
:105190009D81009769F06AC02C813D8122303105E4
:1051A000E1F18C819D818330910509F44BC05EC093
:1051B0008B81882329F4198284E08093060156C0EC
:1051C0008B81823031F483E0898385E0809306010E
:1051D0004DC08B81833009F049C082E0898386E02D
:1051E0008093060143C08B81813029F4198284E0C9
:1051F000809306013BC08B81823031F483E0898348
:1052000085E08093060132C08B81833079F582E09E
:10521000898386E08093060129C08B81882319F059
:105220008B81813031F482E0898386E080930601AE
:105230001DC08B818230D1F481E0898387E0809327
:10524000060114C08B81882319F08B81813031F4E1
:1052500083E0898385E08093060108C08B818330D9
:1052600029F481E0898387E08093060123EA30E016
:105270008981882F90E0880F991F880F991F880FC8
:10528000991F820F931F0F900F900F900F900F9008
:10529000CF91DF910895DF93CF9300D0CDB7DEB7E4
:1052A0001A8219821A8223C019821BC08A81282F70
:1052B00030E08981482F50E0C901880F991F880F7D
:1052C000991F9C01220F331F220F331F820F931F40
:1052D000840F951FFC01E55FFE4F108289818F5F6F
:1052E00089838981843110F38A818F5F8A838A81DF
:1052F0008430D0F20F900F90CF91DF910895DF931B
:10530000CF9300D0CDB7DEB7809108018A8380911A
:10531000090189830CC080E063E00E94CE2980935C
:10532000080180E063E10E94CE29809309019091F9
:1053300008018A81891729F49091090189818917C7
:1053400051F30F900F90CF91DF910895DF93CF939A
:10535000CDB7DEB780915D01282F332727FD30952B
:1053600080910801882F90E028173907A1F48091D7
:105370005E01282F332727FD309580910901882F62
:1053800090E02817390739F4809181008F5F80936E
:10539000810010920A01CF91DF910895DF93CF939E
:1053A00000D00F92CDB7DEB78A836B830E94FA2AB2
:1053B000AC018B81282F30E08A81882F90E0B901E1
:1053C000681B790BCB019C012F5F3F4FCA01B901CC
:1053D0000E94022A982F8A81890F898389810F90E0
:1053E0000F900F90CF91DF91089587FB082E06262E
:1053F00087FD819567FD619533D00EF4919507FC8B
:105400008195089597FB092E07260AD077FD04D0D1
:1054100033D006D000201AF4709561957F4F08951F
:10542000F6F7909581959F4F089597FB092E0526D5
:105430000ED057FD04D034D00AD0001C38F450955B
:105440004095309521953F4F4F4F5F4F0895F6F7A8
:1054500090958095709561957F4F8F4F9F4F0895E0
:10546000991B79E004C0991F961708F0961B881FB6
:105470007A95C9F780950895AA1BBB1B51E107C017
:10548000AA1FBB1FA617B70710F0A61BB70B881FD4
:10549000991F5A95A9F780959095BC01CD01089563
:1054A000A1E21A2EAA1BBB1BFD010DC0AA1FBB1F28
:1054B000EE1FFF1FA217B307E407F50720F0A21B9A
:1054C000B30BE40BF50B661F771F881F991F1A9407
:1054D00069F760957095809590959B01AC01BD0131
:1054E000CF0108952F923F924F925F926F927F92D9
:1054F0008F929F92AF92BF92CF92DF92EF92FF92E4
:105500000F931F93CF93DF93CDB7DEB7CA1BDB0B8F
:105510000FB6F894DEBF0FBECDBF09942A88398834
:1055200048885F846E847D848C849B84AA84B9843B
:10553000C884DF80EE80FD800C811B81AA81B98147
:10554000CE0FD11D0FB6F894DEBF0FBECDBFED015B
:105550000895A0E0B0E0EFEAFAE20C947A2AEC01B8
:10556000A880B980CA80DB80A114B104C104D10431
:1055700041F484E2A82E89EDB82E8BE5C82E87E091
:10558000D82EC601B5012DE133EF41E050E00E9475
:10559000152A27EA31E440E050E00E940A2B7B0103
:1055A0008C01C601B5012DE133EF41E050E00E94CE
:1055B000152ACA01B9012CEE34EF4FEF5FEF0E94BC
:1055C0000A2B6E0D7F1D801F911F97FF04C0615035
:1055D000704080409048688379838A839B839B01D5
:1055E0003F77C901CDB7DEB7EAE00C94962A0E9456
:1055F000A92A089583E790E00E94A92A0895A0E0CF
:10560000B0E08093730090937400A0937500B09302
:1056100076000895629FD001739FF001829FE00D94
:10562000F11D649FE00DF11D929FF00D839FF00D21
:10563000749FF00D659FF00D9927729FB00DE11DCD
:10564000F91F639FB00DE11DF91FBD01CF011124AA
:065650000895F894FFCF5D
:1056560047616D65204F76657221000000000000ED
:105666000000000100000000010203040506071007
:105676001103FF00001E191E00000000000F130F8B
:10568600000000040A0A0E0E0E0E0E0E0E0E0E0E70
:105696000A0A0400000E0E0E0000000E0E0E0E0E7C
:1056A6000E0E0E00000E0E0E0E0E0E0E0E0E0E0E30
:1056B6000000003F065B4F666D7D077F6F3F065B10
:1056C6004F666D7D077F6F3F065B4F666D7D077F7B
:1056D6006F3F065B4F666D7D077F6F3F065B4F66CC
:1056E6006D7D077F6F0708092F0405062A0102034F
:0656F6002D43003D2B00D6
:00000001FF
